:1000000022C0FECFFDCFFCCFFBCFFACFF9CFF8CF88
:10001000F7CFF6CFF5CFF4CFF3CFF2CFF1CFF0CFCC
:10002000EFCFEECF2CC0ECCFEBCFEACFE9CFE8CFCC
:10003000E7CFE6CF1027E80364000A0001000010B4
:10004000000110000100F894EE27EFBBF1E0F5BFCE
:10005000E5BF8DE0A2E0BB27ED938A95E9F780E04C
:1000600094E0A0E0B1E0ED930197E9F7E0E0EEBBAA
:10007000EFEFEDBFE4E0EEBFC0E0D2E04FC0AA93E7
:10008000EA93FA93EFB7EA93BDD31091C0000091C1
:10009000C600E12FEC71C9F4E0918002EF5FE093BC
:1000A000800249D30083A0918002A03819F4E0E0D7
:1000B000E0938002A0918202AF5FA0938202A038F9
:1000C00021F4E0E0E0938202F09A09911991E9911C
:1000D000EFBFF991E991A9911895E09182020895F5
:1000E0001A93E0918202E030E1F3E0918102EF5F48
:1000F000E093810220D31081A12F13D3A09181021C
:10010000A03819F4E0E0E0938102F894E0918202D3
:10011000E150E09382027894E12F0BC3E0E8E09392
:100120006100E0E0E0936100EFE3E4B9E0E0E5B90D
:10013000EFE3E7B9E2E0E8B9EEEFEAB9E0E0EBB906
:10014000E4BDE5BDE6BDE7BDE8BDE0938000E0931A
:100150008100E0938500E0938400E0938700E093C2
:100160008600E0938900E0938800E0938B00E093A1
:100170008A00E093B600E093B000E093B100E09312
:10018000B200E093B300E093B400E0936E00E0931C
:100190006F00E0937000E0936900EDBBE0936800AE
:1001A000E093C000E8E9E093C100E6E0E093C2001C
:1001B000E1E0E093C500E0EAE093C400E0E8E0BFDE
:1001C000E0E0E0937B00E0937F00E0937A00ECBDF9
:1001D000E093BC00789483D203D0FAD1FDCFFFCF57
:1001E00024971A937ADFE03009F48CC079DF1E2F50
:1001F000E0918C02F0E03097A1F41F7D1C3431F0C7
:10020000133421F0163511F0183421F410938902BB
:10021000E1E096D21B3421F410938902EAE090D2F7
:1002200071C0E130A0E0FA0729F58DD2AC3419F0A5
:100230008AD2A33479F4113310F0193308F006C0D0
:10024000E12FE153E0938A02E2E001C0E0E0E093B5
:100250008C020FC078D2A63519F075D2A83439F4C3
:10026000103311F0113311F471D26AD202C0E0E000
:1002700067D248C0E230A0E0FA0751F4103311F021
:10028000113311F463D201C0E0E0E0938C023AC074
:10029000E330A0E0FA0741F41D3011F01A3019F4F0
:1002A000E1E0E09383022BC0EA30A0E0FA0719F402
:1002B00053D257D225C0EB30A0E0FA0761F44CD2FC
:1002C0005CD2A981BA818B819C81E8E0B5D25AD2F7
:1002D0005FD247D215C0EC30A0E0FA0799F43CD2C7
:1002E00051D2C1D24FD254D2E0938502F09386020C
:1002F0006093870270938802E1E0E0938402E0E07B
:10030000E0938C021881259608957CD21A2F0A81D9
:10031000023449F447D2E129E5B949D243D2E09504
:10032000E121E5B915C0033449F444D2E129E8B923
:100330003ED240D2E095E121E8B90AC0043441F44C
:100340003ED2E129EBB933D23AD2E095E121EBB9C3
:100350005ED223960895A0D255D2EA81FB816C81AA
:100360007D819FD231F44198429A419A42984FD26E
:10037000B4C107E110E011238AF0E02F25D2AA8151
:10038000BB818C819D8146D28CD211F02A9A01C00A
:100390002A98409A409801501040EDCF429A4298D6
:1003A00036D29BC128971A931A2F14D2E831A0E0B5
:1003B000FA0721F412D2A0E0A8DF6DC0E931A0E075
:1003C000FA0721F40AD2A1E0A0DF65C0EA31A0E07B
:1003D000FA0721F405D2A2E098DF5DC0EB31A0E07E
:1003E000FA0721F4FDD1A3E090DF55C0EC31A0E085
:1003F000FA0721F4F5D1A4E088DF4DC0ED31A0E08B
:10040000FA0721F4EDD1A5E080DF45C0EE31A0E090
:10041000FA0721F4E5D1A6E078DF3DC0EF31A0E096
:10042000FA0721F4DDD1A7E070DF35C0E032A0E0AB
:10043000FA0729F4E3E4EA93A4E067DF2CC0E13291
:10044000A0E0FA0729F4E3E4EA93A5E05EDF23C025
:10045000E232A0E0FA0721F4C0D1A4E056DF1BC0CD
:10046000E332A0E0FA0721F4B8D1A5E04EDF13C0D3
:1004700073D183D1E981A8D1ED83FE836F8378871F
:10048000AD81BE818F81988566DF91D1A0E0B0E01B
:1004900080E090E060DF188129960895B3D10A2F9B
:1004A000E02FF0E0309711F410E065C0E130A0E0FB
:1004B000FA0711F412E05FC0E230A0E0FA0711F48D
:1004C00014E059C0E330A0E0FA0711F416E053C07D
:1004D000E430A0E0FA0711F418E04DC0E530A0E0E8
:1004E000FA0711F412E247C0E630A0E0FA0711F46F
:1004F0001AE041C0E730A0E0FA0711F41CE03BC06D
:10050000E830A0E0FA0711F41EE035C0E930A0E0C1
:10051000FA0711F410E12FC0EA30A0E0FA0711F455
:1005200012E129C0EB30A0E0FA0711F414E123C076
:10053000EC30A0E0FA0711F416E11DC0ED30A0E0A8
:10054000FA0711F418E117C0EE30A0E0FA0711F431
:100550001AE111C0EF30A0E0FA0711F41CE10BC062
:10056000E031A0E0FA0711F41EE105C0E131A0E09E
:10057000FA0709F410E2E02FF0E035D1E081E03035
:1005800019F4A12FAF5F01C0A12F0CDF09911991C0
:1005900008951A9310E0123168F41CD124D1A0817F
:1005A00019D1E156FD4FE081EA1711F0A12F76DF56
:1005B0001F5FF1CF10E0123150F4A12FB0E0A1562F
:1005C000BD4F08D110D1E081EC931F5FF4CFB1C0D3
:1005D0002497A0918302A03021F4A0918402A0303E
:1005E00009F001C069C0E0918302E03089F1ABD02D
:1005F000A33439F4E0918A02F0E0F5D0A0918B02A7
:10060000A083A1D0AC3441F4E0918A02F0E0EB5633
:10061000FD4FA0918B02A08396D0A63559F4E091AE
:100620008B02E0939D02A0918B02A13019F4E0E0CF
:10063000E0939E0288D0A83459F4E0918B02E093B5
:100640009E02A0918B02A13019F4E0E0E0939D029C
:10065000E0918402E03051F1E0E019D10ED1A231F5
:10066000E0E0BE07E0E08E07E0E09E07F8F4E881F6
:10067000F981B9D0FF93EF93E881A6D0A0918502CC
:10068000B09186028091870290918802C3D009D1EF
:1006900011F0E1E001C0E0E0AF91BF91EC93E8D050
:1006A000EF5FFF4F6F4F7F4FEDD0D8CF72DFE0E0AD
:1006B000E0938302E093840224960895A1D01A2F38
:1006C0000C813D813093890200938A0210938B0242
:1006D000E1E0E09383027CDF98D0269608951A9398
:1006E00010E0123138F476D0E156FD4FAFEFA08321
:1006F0001F5FF7CF11E0193030F4E3E477D0A0E0CA
:10070000DDDF1F5FF8CFE6E576D0E8E474D011E0D6
:10071000193030F4ECE46AD0A1E0D0DF1F5FF8CFED
:1007200008C01A931A2FE091C000E072E1F3109311
:10073000C60019910895E150F0E0E050FE4F089591
:10074000E0938C020895A09189020895E12FE0536F
:10075000E0938B02E3E00895E12FFF2766277727D8
:100760000895E0938502F093860260938702709368
:100770008802E0918C02EF5F0895E983FA836B832E
:100780007C830895FADFE981FA816B817C81089589
:10079000A0918502B0918602809187029091880293
:1007A0003ED0089515B0E12FA1E03ED00895A4E118
:1007B000B0E07BC018B0E12FA1E036D008951BB0A7
:1007C000E12FA1E031D00895A1E0B0E080E090E019
:1007D00033D00895E12FF0E00895E2E4EA9308951C
:1007E000E4E4EA930895E357FD4F0895EA93E12F77
:1007F000E150EA930895EA93E0E0EA93A0E05ECF47
:100800003A932A931A930A9308953B812A81198176
:1008100008810895EA23FB23682379230895EA2BAE
:10082000FB2B682B792B0895EE230E2EEA2F19F05F
:10083000EE0F0A94E9F70895EE230E2EE8E01E2E3F
:10084000FD01BC0179F0011438F0762F6F2FFE2FD7
:10085000E0E00118C1F70895EE0FFF1F661F771F34
:100860000A94D1F708956E2F7F2FE0E0F0E008950D
:10087000E881F9816A817B810895A881B9818A81A3
:100880009B810895E883F9836A837B830895E883D5
:10089000E983EA83EB8308959A938A93BA93AA93A0
:1008A00008953097604070400895109639F0A895EB
:1008B00080ED97E00197F1F71197C9F70895FFFFD1
:1008C000FFFFFFFFFFFFFFFFFFFFFFFFFFFFFFFF38
:1008D000FFFFFFFFFFFFFFFFFFFFFFFFFFFFFFFF28
:1008E000FFFFFFFFFFFFFFFFFFFFFFFFFFFFFFFF18
:1008F000FFFFFFFFFFFFFFFFFFFFFFFFFFFFFFFF08
:00000001FF
