S0170000444A304142525F54756E65725F46572E7372656311
S113000044C05EC05DC05CC05BC05AC059C058C02B
S113001057C078C255C054C053C052C051C050C01C
S11300205FC24EC035C54CC04BC04AC049C048C071
S11300300DC246C08CC2A3C2C5C2D0C217C316C368
S113004015C314C313C312C3D3C2E1C2F7C2C4C3DA
S1130050C7C3CAC3CDC3D0C3D3C3D6C3D9C3DCC3F8
S1130060DFC3E2C3E5C30EC40FC410C411C412C479
S113007013C414C415C416C417C418C419C41AC4A8
S11300801BC41CC41DC41EC41FC411241FBECFEF37
S1130090D4E0DEBFCDBF11E0A0E0B1E0EEEAFCE0C9
S11300A002C005900D92A432B107D9F722E0A4E270
S11300B0B1E001C01D92A230B207E1F702D0F5C54C
S11300C09FCF5CD580E090E0089580E98093BC00E8
S11300D0E4E2F1E080818E7F808313868EE00895D0
S11300E0E4E2F1E080818E7F8083138680E00895CE
S11300F0ECEBF0E08081806A808381E00895ECEB92
S1130100F0E08081806A808382E00895ECEBF0E087
S11301108081806A808381E008958091B900887F1E
S1130120883039F08091B900887F803111F0CDDFBB
S1130130089580912501880F81608093BB00ECEBCA
S1130140F0E080818F7D80838081806880838AE075
S113015008958091B900887F883039F08091B90082
S1130160887F803111F0B1DF089580912501880FD7
S11301708093BB00ECEBF0E080818F7D80838081F5
S1130180806880838BE00895ECEBF0E08081806AE6
S1130190808388E00895A4E2B1E082E01B968C930A
S11301A01B971E96ED91FC911F975A968D919C91E9
S11301B05B970995823019F0833019F004C098DFF9
S11301C008959DDF089581DF089580E98093BC0040
S11301D0E4E2F1E080818E7F808382E083878EE099
S11301E00895ECEBF0E0808180698083E4E2F1E043
S11301F080818E7F8083138680E008958091B9008A
S1130200887F803539F08091B900887F883511F076
S11302105CDF08958091280190912901029731F4BF
S1130220ECEBF0E080818F7B808305C0ECEBF0E0A9
S1130230808180648083E4E2F1E084819581019788
S113024095838483892B89F0A281B3818091BB003B
S11302508C9382819381019693838283ECEBF0E00B
S113026080818068808384E00895A4E2B1E01296DE
S1130270ED91FC9113978091BB00808312968D9130
S11302809C911397019613969C938E9312978C913D
S113029084608C931C96ED91FC911D9758968D91DA
S11302A09C91599709958250823010F46DDF08951E
S11302B098DF0895ECEBF0E0808180698083E4E2CC
S11302C0F1E080818E7F8083138680E00895A4E22C
S11302D0B1E082E01B968C931B975096ED91FC91B4
S11302E051975C968D919C915D970995823019F098
S11302F0833019F004C0FCDE089501DF0895DADFCD
S113030008958091B900887F803411F0E0DF08956A
S11303108091280190912901019739F4ECEBF0E0E8
S113032080818F7B808384E00895ECEBF0E0808112
S11303308064808384E008958091B900887F883147
S113034011F0C5DF089583E008958091B900887F96
S1130350803351F08091B900887F883429F08091EE
S1130360B900887F8032B1F4A4E2B1E05296ED91F5
S1130370FC9153975E968D919C915F97099582307D
S113038019F0833019F004C0B3DE0895B8DE08957F
S113039091DF0895E4E2F1E0A281B381CD010196F9
S11303A0938382838C918093BB00ACEBB0E08C91FF
S11303B080688C9384819581019795838483892BAC
S11303C011F485E0089583E008958091B900887F51
S11303D0803351F08091B900887F883429F080916E
S11303E0B900887F8032B1F4A4E2B1E05296ED9175
S11303F0FC9153975E968D919C915F9709958230FD
S113040019F0833019F004C073DE089578DE08957E
S113041051DF0895A4E2B1E08C9184608C931C9622
S1130420ED91FC911D9758968D919C915997099542
S1130430833031F0843031F0823031F459DE089564
S11304405EDE089582DF089535DF08951F920F92CE
S11304500FB60F9211242F933F934F935F936F9393
S11304607F938F939F93AF93BF93CF93DF93EF9338
S1130470FF938091B900887F883379F08091B90027
S1130480887F883651F08091B900887F883729F0B9
S11304908091B900887F803B19F480E180932E011C
S11304A0C4E2D1E0EA85F0E0EE0FFF1FE050FF4F19
S11304B00190F081E02D09958A87FF91EF91DF91FA
S11304C0CF91BF91AF919F918F917F916F915F91E8
S11304D04F913F912F910F900FBE0F901F90189541
S11304E01F920F920FB60F9211248F93A89A8091A6
S11304F049018F5F809349018F910F900FBE0F9038
S11305001F9018951F920F920FB60F9211248F937C
S1130510B89A809148018F5F809348018F910F9022
S11305200FBE0F901F9018950F931F93FED2882330
S113053009F49CC0FDD2E0914A014E2F50E04D30A9
S1130540510508F093C0FA01E65EFF4F0994982F15
S11305509F7D933429F0963519F08B7D883429F4E6
S11305609093790181E080934A019B3409F07EC025
S11305708BE4809379018AE080934A0177C090915B
S113058079019C3411F0933461F48153883030F450
S11305908093780182E080934A0168C010924A01F6
S11305A065C0963511F0983451F48053823008F0C8
S11305B05DC080937A0183E080934A0157C0109212
S11305C04A0154C08053823030F480937A0183E02E
S11305D080934A014BC010924A0148C08D3011F0FB
S11305E08A3019F481E08093500110924A013EC090
S11305F090E0A0E0B0E080934C0190934D01A09373
S11306004E01B0934F018BE080934A012FC040917B
S11306104C0150914D0160914E0170914F018A013E
S11306209B01182B00934C0110934D0120934E0114
S113063030934F018CE080934A0118C040914C01E3
S113064050914D0160914E0170914F018A019B01BF
S1130650282B00934C0110934D0120934E013093AD
S11306604F0181E080934B0110924A011F910F9139
S113067008958234B1F425B181E090E002C0880F7E
S1130680991F6A95E2F7922F982B95B9EFE3FCE94D
S11306903197F1F700C0000095B18095892385B9A1
S11306A008958334B1F428B181E090E002C0880F4A
S11306B0991F6A95E2F7922F982B98B9EFE3FCE91A
S11306C03197F1F700C0000098B18095892388B96B
S11306D008958434A9F42BB181E090E002C0880F1E
S11306E0991F6A95E2F7922F982B9BB9EFE3FCE9E7
S11306F03197F1F700C000009BB1809589238BB935
S113070008958F929F92AF92BF92CF92DF92EF9211
S1130710FF92CF93DF936B017C01672B682B692BCE
S113072089F488B161E090E0F3D188B162E090E0AF
S1130730E3D188B161E090E0DFD188B162E090E07C
S1130740E7D133C0C7E1D0E0812C912C54018394CC
S1130750D501C4010C2E04C0880F991FAA1FBB1F0A
S11307600A94D2F78C219D21AE21BF21892B8A2B9B
S11307708B2B29F085B162E090E0BED104C085B135
S113078062E090E0C5D188B160E090E0B5D188B175
S113079060E090E0BDD12197D8F688B162E090E0A6
S11307A0ABD188B162E090E0B3D1DF91CF91FF90FB
S11307B0EF90DF90CF90BF90AF909F908F9008956F
S11307C00F931F93482F50E0FA017897EC30F1050E
S11307D098F5E95DFF4F099460E082E44ADF46C082
S11307E061E082E446DF42C062E084E442DF3EC06E
S11307F063E084E43EDF3AC064E084E43ADF36C078
S113080065E084E436DF32C066E084E432DF2EC083
S113081067E084E42EDF2AC064E083E42ADF26C094
S113082065E083E426DF22C064E082E422DF1EC0A8
S113083065E082E41EDF1AC041E050E060E070E051
S11308408A019B0104C0000F111F221F331F8A95C8
S1130850D2F7C901B80155DF8FE39CE90197F1F79D
S113086000C0000060E070E0CB014BDF1F910F91EE
S11308700895482F50E04231510538F5FA01ED5CF6
S1130880FF4F099490E021C092E01FC094E01DC086
S113089096E01BC098E019C092E217C09AE015C018
S11308A09CE013C09EE011C090E10FC092E10DC026
S11308B094E10BC096E109C098E107C09AE105C034
S11308C09CE103C09EE101C090E2E82FF0E0ED5905
S11308D0FE4F8081811104C081E0890F71DF08958A
S11308E0892F6EDF0895AF92BF92CF92DF92EF927D
S11308F0FF920F931F93CF9303E611E00F2EF1E5C0
S1130900EF2EF1E0FF2EF02D57016801C0E0F60153
S113091091916F01F50181915F01981711F08C2F6E
S1130920A8DFCF5FC23199F725E731E0F801819163
S11309308F01F70181937F0102171307B9F7CF9154
S11309401F910F91FF90EF90DF90CF90BF90AF90E9
S113095008958F929F92AF92BF92CF92DF92EF92BF
S1130960FF9280915001811105C080914B0181114A
S113097032C056C080917901833449F4E091780102
S1130980F0E0ED59FE4F90917A01908316C08C34BB
S113099049F4E0917801F0E0ED59FE4F80917A013D
S11309A0808715C0863549F480917A01809373015C
S11309B0813069F4109274010AC0883441F4809142
S11309C07A0180937401813011F410927301809143
S11309D04B01882301F1C0904C01D0904D01E0906F
S11309E04E01F0904F0143E651E025E731E0FA0172
S11309F0CF01841B950B4601570104C0B694A794FC
S1130A00979487948A95D2F7D501C4018170819314
S1130A10E217F30769F767DF1092500110924B0158
S1130A20FF90EF90DF90CF90BF90AF909F908F900A
S1130A300895809379016093780140937A0181E06D
S1130A408093500186DF0895CF93E1E5F1E023E63A
S1130A5031E08FEF81932E173F07E1F7C0E040E0CC
S1130A606C2F83E4E6DFCF5FC830C9F740E060E075
S1130A7086E5DFDF40E060E088E4DBDFC0E041E002
S1130A806C2F8CE4D6DFCF5FC830C9F7CF910895BF
S1130A901F920F920FB60F9211248F939F93EF938F
S1130AA0FF938091C0009091C6008C71E1F4E091B5
S1130AB0770181E08E0F80937701F0E0E558FE4FD7
S1130AC0908380917701803811F41092770180919E
S1130AD075018F5F80937501803829F41092750138
S1130AE081E08093FB01FF91EF919F918F910F9093
S1130AF00FBE0F901F90189521E030E002C0220F26
S1130B00331F6A95E2F7FC013081232B208308957B
S1130B1021E030E002C0220F331F6A95E2F72095EE
S1130B20FC01308123232083089580917501089569
S1130B30CF93809175018823E1F3E091760181E000
S1130B408E0F80937601F0E0E558FE4FC0816091EE
S1130B50FE017091FF018C2F90E06BD080917601A3
S1130B60803811F410927601F894809175018150C7
S1130B708093750178948C2FCF910895E1E6F0E08D
S1130B8080E8808310829FE394B915B897B992E006
S1130B9098B99EEF9AB91BB814BC15BC16BC17BC07
S1130BA018BC10928000109281001092850010925F
S1130BB0840010928700109286001092890010928F
S1130BC0880010928B0010928A001092B600109246
S1130BD0B0001092B1001092B2001092B3001092C3
S1130BE0B40010926E0010926F0010927000109278
S1130BF069001DBA109268001092C00098E99093A1
S1130C00C10096E09093C20091E09093C50090EAF1
S1130C109093C40080BF10927B0010927F001092CA
S1130C207A001CBC1092BC0078940EDF7DDC91DE4F
S1130C30FDCF0F931F93CF93DF93FB01238121FDFE
S1130C4003C08FEF9FEF2CC022FF16C0468157814F
S1130C50248135814217530744F4A081B1819D0159
S1130C602F5F3F4F318320838C93268137812F5F01
S1130C703F4F3783268314C08B01EC01FB010084B2
S1130C80F185E02D0995892BE1F6D80116968D9111
S1130C909C911797019617969C938E931697CE0165
S1110CA0DF91CF911F910F910895F894FFCF2B
S1130CAE70008D00A900A501FE00E50178007F000B
S1130CBE86005A0181019C01F100C40065006701A0
S1070CCECB00E5006E
S9030000FC
